{
  "contractName": "CrowdFunding",
  "abi": [
    {
      "anonymous": false,
      "inputs": [
        {
          "indexed": false,
          "internalType": "string",
          "name": "_uniqueCode",
          "type": "string"
        },
        {
          "indexed": false,
          "internalType": "address",
          "name": "_creator",
          "type": "address"
        },
        {
          "indexed": false,
          "internalType": "uint256",
          "name": "_fundingGoal",
          "type": "uint256"
        },
        {
          "indexed": false,
          "internalType": "uint256",
          "name": "_fundraiseAmount",
          "type": "uint256"
        },
        {
          "indexed": false,
          "internalType": "uint256",
          "name": "_deadline",
          "type": "uint256"
        }
      ],
      "name": "noticeCreateCampaign",
      "type": "event"
    },
    {
      "inputs": [
        {
          "internalType": "string",
          "name": "_uniqueCode",
          "type": "string"
        },
        {
          "internalType": "uint256",
          "name": "_fundingGoal",
          "type": "uint256"
        },
        {
          "internalType": "uint256",
          "name": "_deadline",
          "type": "uint256"
        }
      ],
      "name": "createCampaign",
      "outputs": [],
      "stateMutability": "nonpayable",
      "type": "function"
    },
    {
      "inputs": [
        {
          "internalType": "string",
          "name": "_uniqueCode",
          "type": "string"
        }
      ],
      "name": "FundingCampign",
      "outputs": [],
      "stateMutability": "payable",
      "type": "function"
    },
    {
      "inputs": [
        {
          "internalType": "string",
          "name": "_uniqueCode",
          "type": "string"
        }
      ],
      "name": "DueDay",
      "outputs": [],
      "stateMutability": "nonpayable",
      "type": "function"
    },
    {
      "inputs": [
        {
          "internalType": "string",
          "name": "_uniqueCode",
          "type": "string"
        },
        {
          "internalType": "uint256",
          "name": "_count",
          "type": "uint256"
        }
      ],
      "name": "SaleItem",
      "outputs": [],
      "stateMutability": "payable",
      "type": "function"
    },
    {
      "inputs": [
        {
          "internalType": "string",
          "name": "_uniqueCode",
          "type": "string"
        },
        {
          "internalType": "uint256",
          "name": "_money",
          "type": "uint256"
        }
      ],
      "name": "DistributeProfit",
      "outputs": [],
      "stateMutability": "payable",
      "type": "function"
    }
  ],
  "bytecode": "0x608060405234801561001057600080fd5b506111c6806100206000396000f3fe60806040526004361061004a5760003560e01c80630393d5f91461004f57806309fc2329146101175780633020580b146101dc5780636df51223146102b8578063f7e472601461037d575b600080fd5b34801561005b57600080fd5b506101156004803603602081101561007257600080fd5b810190808035906020019064010000000081111561008f57600080fd5b8201836020820111156100a157600080fd5b803590602001918460018302840111640100000000831117156100c357600080fd5b91908080601f016020809104026020016040519081016040528093929190818152602001838380828437600081840152601f19601f820116905080830192505050505050509192919290505050610438565b005b6101da6004803603604081101561012d57600080fd5b810190808035906020019064010000000081111561014a57600080fd5b82018360208201111561015c57600080fd5b8035906020019184600183028401116401000000008311171561017e57600080fd5b91908080601f016020809104026020016040519081016040528093929190818152602001838380828437600081840152601f19601f820116905080830192505050505050509192919290803590602001909291905050506107e2565b005b3480156101e857600080fd5b506102b6600480360360608110156101ff57600080fd5b810190808035906020019064010000000081111561021c57600080fd5b82018360208201111561022e57600080fd5b8035906020019184600183028401116401000000008311171561025057600080fd5b91908080601f016020809104026020016040519081016040528093929190818152602001838380828437600081840152601f19601f8201169050808301925050505050505091929192908035906020019092919080359060200190929190505050610a3c565b005b61037b600480360360408110156102ce57600080fd5b81019080803590602001906401000000008111156102eb57600080fd5b8201836020820111156102fd57600080fd5b8035906020019184600183028401116401000000008311171561031f57600080fd5b91908080601f016020809104026020016040519081016040528093929190818152602001838380828437600081840152601f19601f82011690508083019250505050505050919291929080359060200190929190505050610ed3565b005b6104366004803603602081101561039357600080fd5b81019080803590602001906401000000008111156103b057600080fd5b8201836020820111156103c257600080fd5b803590602001918460018302840111640100000000831117156103e457600080fd5b91908080601f016020809104026020016040519081016040528093929190818152602001838380828437600081840152601f19601f820116905080830192505050505050509192919290505050610f60565b005b806000816040518082805190602001908083835b6020831061046f578051825260208201915060208101905060208303925061044c565b6001836020036101000a038019825116818451168082178552505050505050905001915050908152602001604051809103902060070160009054906101000a900460ff16156104bd57600080fd5b816000816040518082805190602001908083835b602083106104f457805182526020820191506020810190506020830392506104d1565b6001836020036101000a038019825116818451168082178552505050505050905001915050908152602001604051809103902060010160009054906101000a900473ffffffffffffffffffffffffffffffffffffffff1673ffffffffffffffffffffffffffffffffffffffff163373ffffffffffffffffffffffffffffffffffffffff161461058257600080fd5b826000816040518082805190602001908083835b602083106105b95780518252602082019150602081019050602083039250610596565b6001836020036101000a0380198251168184511680821785525050505050509050019150509081526020016040518091039020600601544210156105fc57600080fd5b600080856040518082805190602001908083835b602083106106335780518252602082019150602081019050602083039250610610565b6001836020036101000a03801982511681845116808217855250505050505090500191505090815260200160405180910390209050806003015481600201541115610772576000816005018054905090506000805b8281101561076a5760008460050183806001019450815481106106a757fe5b9060005260206000200160009054906101000a900473ffffffffffffffffffffffffffffffffffffffff1690508073ffffffffffffffffffffffffffffffffffffffff166108fc8660040160008473ffffffffffffffffffffffffffffffffffffffff1673ffffffffffffffffffffffffffffffffffffffff168152602001908152602001600020549081150290604051600060405180830381858888f1935050505015801561075b573d6000803e3d6000fd5b50508080600101915050610688565b5050506107be565b3373ffffffffffffffffffffffffffffffffffffffff166108fc82600301549081150290604051600060405180830381858888f193505050501580156107bc573d6000803e3d6000fd5b505b60018160070160006101000a81548160ff0219169083151502179055505050505050565b600080836040518082805190602001908083835b6020831061081957805182526020820191506020810190506020830392506107f6565b6001836020036101000a038019825116818451168082178552505050505050905001915050908152602001604051809103902090506060816005018054806020026020016040519081016040528092919081815260200182805480156108d457602002820191906000526020600020905b8160009054906101000a900473ffffffffffffffffffffffffffffffffffffffff1673ffffffffffffffffffffffffffffffffffffffff168152602001906001019080831161088a575b505050505090506000815190508260010160009054906101000a900473ffffffffffffffffffffffffffffffffffffffff1673ffffffffffffffffffffffffffffffffffffffff166108fc6064601e87028161092c57fe5b049081150290604051600060405180830381858888f19350505050158015610958573d6000803e3d6000fd5b5060006064604686028161096857fe5b04905060005b82811015610a3357600084828151811061098457fe5b602002602001015190508073ffffffffffffffffffffffffffffffffffffffff166108fc87600301548860040160008573ffffffffffffffffffffffffffffffffffffffff1673ffffffffffffffffffffffffffffffffffffffff16815260200190815260200160002054816109f657fe5b0485029081150290604051600060405180830381858888f19350505050158015610a24573d6000803e3d6000fd5b5050808060010191505061096e565b50505050505050565b826000846040518082805190602001908083835b60208310610a735780518252602082019150602081019050602083039250610a50565b6001836020036101000a03801982511681845116808217855250505050505090500191505090815260200160405180910390206000019080519060200190610abc9291906110f3565b50336000846040518082805190602001908083835b60208310610af45780518252602082019150602081019050602083039250610ad1565b6001836020036101000a038019825116818451168082178552505050505050905001915050908152602001604051809103902060010160006101000a81548173ffffffffffffffffffffffffffffffffffffffff021916908373ffffffffffffffffffffffffffffffffffffffff160217905550816000846040518082805190602001908083835b60208310610b9f5780518252602082019150602081019050602083039250610b7c565b6001836020036101000a038019825116818451168082178552505050505050905001915050908152602001604051809103902060020181905550600080846040518082805190602001908083835b60208310610c105780518252602082019150602081019050602083039250610bed565b6001836020036101000a038019825116818451168082178552505050505050905001915050908152602001604051809103902060030181905550806000846040518082805190602001908083835b60208310610c815780518252602082019150602081019050602083039250610c5e565b6001836020036101000a038019825116818451168082178552505050505050905001915050908152602001604051809103902060060181905550600080846040518082805190602001908083835b60208310610cf25780518252602082019150602081019050602083039250610ccf565b6001836020036101000a038019825116818451168082178552505050505050905001915050908152602001604051809103902060070160006101000a81548160ff021916908315150217905550600080846040518082805190602001908083835b60208310610d765780518252602082019150602081019050602083039250610d53565b6001836020036101000a038019825116818451168082178552505050505050905001915050908152602001604051809103902090507f97de0620dbdc87f5cebabad532cf603c5d7d6458d3373580015fca2830ab165e816000018260010160009054906101000a900473ffffffffffffffffffffffffffffffffffffffff1683600201548460030154856006015460405180806020018673ffffffffffffffffffffffffffffffffffffffff168152602001858152602001848152602001838152602001828103825287818154600181600116156101000203166002900481526020019150805460018160011615610100020316600290048015610ebb5780601f10610e9057610100808354040283529160200191610ebb565b820191906000526020600020905b815481529060010190602001808311610e9e57829003601f168201915b5050965050505050505060405180910390a150505050565b600080836040518082805190602001908083835b60208310610f0a5780518252602082019150602081019050602083039250610ee7565b6001836020036101000a03801982511681845116808217855250505050505090500191505090815260200160405180910390209050818160080160008282540192505081905550610f5b83346107e2565b505050565b600080826040518082805190602001908083835b60208310610f975780518252602082019150602081019050602083039250610f74565b6001836020036101000a038019825116818451168082178552505050505050905001915050908152602001604051809103902090508060010160009054906101000a900473ffffffffffffffffffffffffffffffffffffffff1673ffffffffffffffffffffffffffffffffffffffff163373ffffffffffffffffffffffffffffffffffffffff16141561102957600080fd5b80600501339080600181540180825580915050600190039060005260206000200160009091909190916101000a81548173ffffffffffffffffffffffffffffffffffffffff021916908373ffffffffffffffffffffffffffffffffffffffff160217905550348160030160008282540192505081905550348160040160003373ffffffffffffffffffffffffffffffffffffffff1673ffffffffffffffffffffffffffffffffffffffff168152602001908152602001600020600082825401925050819055505050565b828054600181600116156101000203166002900490600052602060002090601f016020900481019282601f1061113457805160ff1916838001178555611162565b82800160010185558215611162579182015b82811115611161578251825591602001919060010190611146565b5b50905061116f9190611173565b5090565b5b8082111561118c576000816000905550600101611174565b509056fea26469706673582212201b2974ec1374c6f47dcada7e7abc0c5373fdfa9a3e89c06cf99067a5f31c4adc64736f6c63430007000033",
  "immutableReferences": {},
  "source": "pragma solidity ^0.7.0;\r\n\r\nimport \"./Campaign.sol\";\r\nimport \"./ICrowdFunding.sol\";\r\nimport \"./ISaleItem.sol\";\r\n\r\ncontract CrowdFunding is Campaign, ICrowdFunding, ISaleItem{\r\n    mapping(string => campaignStruct) campaigns;\r\n\r\n    /** modifier 는 function의 실행(행동)을 쉽게 변경가능하도록하며, function 실행의 조건을 체크 할수 있다\r\n     * @param _uniqueCode 해당캠페인의 해시값\r\n     */\r\n    modifier campaignNotClosed(string memory _uniqueCode) {require(!campaigns[_uniqueCode].closed); _;}\r\n    \r\n    /** 게시글 작성자만 허용\r\n     * @param _uniqueCode 해당캠페인의 해시값  \r\n     */\r\n    modifier campaignOwner(string memory _uniqueCode) {require(msg.sender == campaigns[_uniqueCode].creator); _;}\r\n\r\n    /** 마감일이 지났는지 확인하는 modifier\r\n     * @param _uniqueCode 해당캠페인의 해시값\r\n     * now는 더이상 지원하지 않기때문에 block.timestamp를 사용함 두개가 같은 의미\r\n     */\r\n    modifier becomeDuedate(string memory _uniqueCode) {require(block.timestamp >= campaigns[_uniqueCode].deadline);_;}\r\n\r\n    /**투자 게시글 생성 \r\n       게시글에대한 해시값, 목표금액, 마감일이 파라미터로 넘겨짐\r\n       투자를 받는 사람의 주소, 목표금액, 모인금액, 투자자들의 개별 투자금액을위한 mapping\r\n       거래의 마감일, 마감일이 종료되었는지 아닌지\r\n     */\r\n    \r\n    //버전0.6.0부터는 override시 어느 곳으로부터 파생되었는지 명시 해주어야함\r\n    function createCampaign (string memory _uniqueCode, uint256 _fundingGoal, uint _deadline) public override(ICrowdFunding){\r\n        campaigns[_uniqueCode].uniqueCode = _uniqueCode;\r\n        campaigns[_uniqueCode].creator = msg.sender;\r\n        campaigns[_uniqueCode].fundingGoal = _fundingGoal;\r\n        campaigns[_uniqueCode].fundraiseAmount = 0;\r\n        //mapping을 초기화시켜주기위해 게시자의 주소를 가지고 초기화를해줌 사용하지는 않을예정\r\n        //campaigns[_uniqueCode].investRate[msg.sender] = 0;\r\n        campaigns[_uniqueCode].deadline = _deadline;\r\n        campaigns[_uniqueCode].closed = false;\r\n\r\n        campaignStruct storage tempCamp = campaigns[_uniqueCode];\r\n        emit noticeCreateCampaign(tempCamp.uniqueCode, tempCamp.creator, tempCamp.fundingGoal, tempCamp.fundraiseAmount, tempCamp.deadline);\r\n    }\r\n\r\n    /**특정 게시글에 투자하기\r\n     *@param _uniqueCode 투자하고싶은 게시글에대한 해시값\r\n     */\r\n    function FundingCampign(string memory _uniqueCode) payable public override(ICrowdFunding) {\r\n        campaignStruct storage tempCamp = campaigns[_uniqueCode];\r\n        \r\n        //게시글 작성자는 투자를 막는다\r\n        require(msg.sender != tempCamp.creator);\r\n\r\n        tempCamp.investgators.push(msg.sender);\r\n        tempCamp.fundraiseAmount += msg.value;\r\n        tempCamp.investRate[msg.sender] += msg.value;\r\n    }\r\n\r\n    /**\r\n     * 마감일이 되면 목표금액에 도달 했을경우 펀딩 금액을 작성자에게 줌 \r\n     * @param _uniqueCode 게시글에대한 해시값\r\n     */\r\n    function DueDay(string memory _uniqueCode) campaignNotClosed(_uniqueCode) campaignOwner(_uniqueCode) becomeDuedate(_uniqueCode) public override(ICrowdFunding) {\r\n        campaignStruct storage tempCamp = campaigns[_uniqueCode];\r\n\r\n        if(tempCamp.fundingGoal > tempCamp.fundraiseAmount){\r\n            // 투자자들에게 투자한 금액 만큼 돈이 송금됨\r\n            uint256 len = tempCamp.investgators.length;\r\n            uint count = 0;\r\n            for(uint i=0; i<len; i++){\r\n                address invastgator = tempCamp.investgators[count++];\r\n                //0.5.0부터는 address에서 trasfer를 할 수 없고 두번의 address를 uint160으로 형변환 한뒤에 다시 address로 형변환 해주어야 송금이 가능해 짐\r\n                address(uint160(invastgator)).transfer(tempCamp.investRate[invastgator]);\r\n            }\r\n\r\n        }else{\r\n            // creator에게 투자금액이 송금됨\r\n            msg.sender.transfer(tempCamp.fundraiseAmount);\r\n        }\r\n\r\n        tempCamp.closed = true;\r\n    }\r\n\r\n     /** 물건 판매\r\n    @param _uniqueCode 게시글에 대한 해시값\r\n    */\r\n    function SaleItem(string memory _uniqueCode, uint _count) payable public override(ISaleItem){\r\n        campaignStruct storage tempCamp = campaigns[_uniqueCode];\r\n        //판매를 하면 해당 금액 만큼 profit에 돈을 저장해두고 일주일후 DistributeProfit을 호출함\r\n        tempCamp.totalSell += _count;\r\n        DistributeProfit(_uniqueCode, msg.value);\r\n    }\r\n\r\n    /** 수익 분배\r\n     @param _uniqueCode 게시글에 대한 해시값\r\n    */\r\n    function DistributeProfit(string memory _uniqueCode, uint256 _money) payable public override(ISaleItem){\r\n        campaignStruct storage tempCamp = campaigns[_uniqueCode];\r\n\r\n        address[] memory investgatorsList = tempCamp.investgators;\r\n        uint256 investgatorsCount = investgatorsList.length;\r\n        // 판매자에게 나누어지게 될 몫\r\n        address(uint160(tempCamp.creator)).transfer((_money*30)/100);\r\n        // 투자자들에게 나누어지게 될 몫\r\n        uint256 share = (_money*70)/100;\r\n\r\n        for(uint256 i=0; i<investgatorsCount; i++){\r\n\r\n            address investgator = investgatorsList[i];\r\n            //토큰으로 바꿔서 보내줘야됨\r\n            address(uint160(investgator)).transfer((share)*(tempCamp.investRate[investgator]/tempCamp.fundraiseAmount));\r\n        }\r\n    }\r\n\r\n\r\n\r\n    \r\n\r\n    \r\n}",
  "sourcePath": "C:/Users/multicampus/Desktop/Ethereum/s03p22b102/Smartcontract/contracts/CrowdFunding.sol",
  "compiler": {
    "name": "solc",
    "version": "0.7.0+commit.9e61f92b.Emscripten.clang"
  },
  "schemaVersion": "3.2.5",
  "updatedAt": "2020-09-21T07:16:29.875Z",
  "devdoc": {
    "kind": "dev",
    "methods": {
      "DistributeProfit(string,uint256)": {
        "params": {
          "_uniqueCode": "게시글에 대한 해시값"
        }
      },
      "DueDay(string)": {
        "params": {
          "_uniqueCode": "게시글에대한 해시값"
        }
      },
      "FundingCampign(string)": {
        "params": {
          "_uniqueCode": "투자하고싶은 게시글에대한 해시값"
        }
      },
      "SaleItem(string,uint256)": {
        "params": {
          "_uniqueCode": "게시글에 대한 해시값"
        }
      }
    },
    "version": 1
  },
  "userdoc": {
    "events": {
      "noticeCreateCampaign(string,address,uint256,uint256,uint256)": {
        "notice": "createCampaign에대한 event"
      }
    },
    "kind": "user",
    "methods": {
      "DistributeProfit(string,uint256)": {
        "notice": "수익 분배"
      },
      "DueDay(string)": {
        "notice": "마감일이 되면 목표금액에 도달 했을경우 펀딩 금액을 작성자에게 줌 "
      },
      "FundingCampign(string)": {
        "notice": "특정 게시글에 투자하기"
      },
      "SaleItem(string,uint256)": {
        "notice": "물건 판매"
      },
      "createCampaign(string,uint256,uint256)": {
        "notice": "투자 게시글 생성  게시글에대한 해시값, 목표금액, 마감일이 파라미터로 넘겨짐 투자를 받는 사람의 주소, 목표금액, 모인금액, 투자자들의 개별 투자금액을위한 mapping 거래의 마감일, 마감일이 종료되었는지 아닌지"
      }
    },
    "version": 1
  }
}